:100000000013002019010000150100001501000077
:1000100000000000000000000000000000000000E0
:1000200000000000000000000000000015010000BA
:10003000000000000000000015010000A50C0000F9
:100040001501000015010000150100001501000058
:100050001501000015010000150100001501000048
:100060001501000015010000150100001501000038
:100070001501000015010000150100001501000028
:100080001501000015010000150100001501000018
:100090001501000000000000000000001501000034
:1000A00015010000150100001501000015010000F8
:1000B0000000000010B5064C2378002B07D1054B3B
:1000C000002B02D0044800E000BF0123237010BDC4
:1000D0009404002000000000E0180000084B10B558
:1000E000002B03D00749084800E000BF0748036819
:1000F000002B00D110BD064B002BFBD09847F9E731
:100100000000000098040020E0180000E018000043
:1001100000000000FEE700002148224970B5884237
:1001200004D00023204CCA18A24232D300211F4B16
:100130001F4A934231D3FF211E4B1F4A8B439360CA
:1001400002220C25082430261C4B1D485A62C37815
:10015000FC398B431343C370C378AB432343C37051
:10016000184B987BB0430600202030439873987B4F
:10017000A84304439C73987B884302439A7380236B
:10018000114A51680B435360104B9847104B9847E6
:10019000FEE7C55804331560C5E702C3C9E7C0468A
:1001A000E0180000000000209404002094040020C7
:1001B000000B00200000000000ED00E0FC7000419A
:1001C000005000410048004100400041011400007F
:1001D000B10C0000202370B5354A0F20D1690B43C4
:1001E000D361012233490B7813430B70324B1978DA
:1001F0008143197006211C78214319702F490C780E
:1002000022430A701A7802401A70602219780A4351
:100210001A702B4B2B4A5A805A78D209FCD12A4BA0
:10022000013219780A431A709A78D207FCD41F2039
:1002300026490A68520B0240824200D105221C8DD9
:10024000234D024092012C4022431A850A68920CE9
:1002500002401F2A00D1023A1F24188D2240A043D9
:10026000024307201A850A68D20D0240824200D15B
:100270000322198D02401748120301400A437F21CF
:100280001A851A7814480A401A70042219780A4309
:100290000C211A7058621A898A431A811A890B39FB
:1002A0008A431A818022002152000C4B984770BD6E
:1002B00000040040584400413C440041594400417E
:1002C000000C004006400000005000412460800007
:1002D0003FF8FFFFFF8FFFFFB4070020CD140000A1
:1002E000F7B51C00314B06005B6A0F001500019347
:1002F000002C05D1443454432D4BE4182D4B984722
:1003000063782278934210D2D51ABD4200D93D00BD
:10031000002E08D0211DC9182A00274B300098470D
:1003200063785B1963702800FEBD019BA1786A01A8
:10033000D318002911D1211D196059681F48890B54
:10034000890359605968014059601D495518402179
:100350002879014329710121A17014490025511800
:10036000019118495218127AD207DCD55D68A2783B
:10037000EDB22570022A04D11968201D2A000E4B07
:100380009847BD4200D93D00002E0CD06570211D5C
:100390002A003000084B98470122019BFF331A7254
:1003A0000023A370BFE76670F6E7C0460050004127
:1003B000B4080020E512000049140000FF3F00F0DF
:1003C00000510041FF500041F7B505000C001E0030
:1003D0000192002C00D1F7BD210028003300019AC2
:1003E000024FB847241A2D18F3E7C046E102000077
:1003F000F7B51600264A0F00556A72010192551989
:10040000002B20D004006B695B005B086B612C61E2
:100410006B69BA049B0B920C9B0313436B616B6972
:100420001C4A802113406B611B4A019B9B180222CE
:100430001A7299711849019B8C466344197A1142CA
:10044000FCD03800FEBD01226B695B005B0F0333FB
:100450009A408A4210D8114B0400984202D81048A2
:10046000104B9847331F5E1EB3416E69DB07760061
:1004700076081E436E61CAE7442474430A4E04346E
:10048000A4190A00094B010020009847BFE7C046A5
:1004900000500041FF3F00F0FF500041FFFFFF1FF1
:1004A000AF0200007D120000B408002049140000D3
:1004B00010B50023014CA04710BDC046F103000059
:1004C000054B10B51B888B4200D90B001900002288
:1004D000024B984710BDC046B0040020B104000094
:1004E00007B500226B461100D81D014B984707BD88
:1004F000B1040000F0B5C24B9BB098470823C14C33
:10050000C14AA68B1E402DD011214020A3837833F1
:10051000A372C024517090715371BC4BBC4D59688B
:10052000A405294021435960596929400C43B94920
:100530005C611960B849B94C196159680C40802157
:100540008902214359605968890B890359605071A8
:100550000022B34B9A70B24B9878431E9841C0B2B8
:100560001BB0F0BD1023117A1942F4D0AD4F1372B5
:10057000B979BB880091F97900980191090201438A
:1005800009B2029169460989787A8C46397A000263
:10059000014309B288B20390FD7AB87A2D0228434C
:1005A0009F4D28804025A0485571834200D1F7E037
:1005B00019D880204000834212D00AD8812B04D061
:1005C000822B00D1C0E0802B0AD108A8068002212E
:1005D00036E081204000834200D1E6E000D2DFE037
:1005E00020239371B7E79148834213D8013883429F
:1005F00020D28F48834200D1BFE0A021C9008B42A6
:10060000EED18C4B98478023029A5B421343DBB2B6
:10061000A372A0E7902109018B4268D086498B42E2
:1006200000D1E9E0882109018B42D9D17C4B981C8B
:10063000012105E080235B009C4504D112217F4805
:100640007F4B984787E780239B009C4502D1202160
:100650007C48F5E7019B032B41D1009B032BBFD8BE
:1006600008AC794B4822002120009847032363708F
:10067000009B002B07D1092204332370A270E37082
:1006800008A80178DCE76D4D04AA2B00143313CBC6
:1006900013C2002426001B68136004ABE3586B4AA6
:1006A000196890196A4B0122984704343618102CA7
:1006B000F3D10024654B9C55BB799B00ED186D6A06
:1006C000644B28009847013008AA400010702B5D49
:1006D000611C002BD4D0480013540C00F7E7019B99
:1006E0000F2B00D07CE7574805212030A8E76A4649
:1006F0004B4B127A9A704F4B9847D02303225B00E2
:10070000E254424BC0211E00A4363268404889059D
:1007100002400A433260A622FF32A5541A004E4D11
:10072000A0321560C02230255200A5541D0094351A
:100730002A68903302401143C2222960802152006E
:10074000A154464A1A6006E70F2308A88FB2068014
:100750001F40072F00D943E7083741337F01194273
:1007600006D0284BFF18BB799B06DB0F03802EE7D2
:10077000244BFF18BB79DB06F7E76346002B00D05C
:100780002EE70F338FB21F407B1E062B00D927E7C1
:1007900008371C4B7F01FF180B0604D520237B7103
:1007A000244B9847D7E61023F9E76346002B00D087
:1007B00016E70F338FB21F407B1E062B00D90FE7C1
:1007C000114B7F01FF18FA790B060AD520231A4234
:1007D000E6D07B713A7ADB181A42E1D03B723E3B9D
:1007E000DDE710231A42DBD07B713A7ADB181A421C
:1007F000D6D03B721F3BD2E708A8068018E7C04658
:10080000E512000000500041FF500041B4070020F5
:10081000FFFFFF8F74070020B8080020FF3F00F0A3
:10082000B0040020700700200103000081060000D2
:1008300002030000E1040000A1FE00001C170000FC
:10084000C104000000000020CD140000B30400200B
:100850007F120000611500000C0A0020C80900206A
:1008600010B5054B98470022044B9A700223044AA6
:1008700011780B43137010BDD5010000B0040020A7
:100880000050004130B5030020251C1AA24200DCB4
:1008900030BD0C78002C03D001311C700133F4E71B
:1008A0001D70FBE7F8B580220C00050092000021C6
:1008B00020004B4B9847002D0CD13E22494B4A4912
:1008C00020009847FF2355225B00E254474B9218C3
:1008D000E254F8BD7E2D20D86B1E3E2B00D93F3B45
:1008E000002B0DD01B021A1FFC33FF2A03D812D095
:1008F000511D89B22180013202349A42F5D1E8E7D4
:10090000F0222100FF2022700A31621C9142E9D0BE
:1009100010700132FAE73649ECE7822D31D87F2D8D
:10092000D7D1314E0B22310020002B31314FB84747
:1009300028234C36E3727D3D8020336820348002CA
:10094000002B02D018002C4B98473100030A637724
:10095000030C2077A377000E2B0AE077A576E376C9
:100960000B220C392000B84767224D230135524233
:10097000ADB222746374227663761036052DDBD116
:10098000A7E72B00833B012B0CD8174A1B01D31878
:10099000DD6C194B28009847290002002000114BFC
:1009A000984796E7124B853D2902994200D990E776
:1009B000124B134A2360134BA0686360FE235B0055
:1009C000E250802380229B0103432000A3600E4B52
:1009D00052006561A261E1602261E3612030DEE7DF
:1009E000CD140000491400006C170000FF01000046
:1009F000FFFF000085080000611500005546320A1F
:100A0000306FB10A57515D9E882BED6870B51600A6
:100A10001D000A682F4B0C009A4252D12E4B4A6897
:100A20009A424ED1FE2252002C4B8A589A4248D10B
:100A30008B689A0403D52A4AE169914241D1DB07C8
:100A400011D4802322695B009A420CD1E068C3B2C2
:100A5000002B08D1234B244AC318934203D821000A
:100A6000224B20319847002D2CD0A369002B29D090
:100A700064222968FF328B4206D0934201D80029B4
:100A800001D001235B422B606369934219D807218F
:100A9000012219408A40DB08EB18197AD2B21142C0
:100AA00004D10A431A726B6801336B606A682B6861
:100AB0009A4206D3002E04D10D4B1B681E330D4AFB
:100AC000136070BD002EFCD1094B1B682D33FF3322
:100AD000F5E7C0465546320A57515D9E306FB10A60
:100AE000882BED6800E0FFFFFFDF0000750B0000C2
:100AF000D40A0020D80A0020074B1A00197DC90724
:100B0000FCD52021FF31198304494008D8611980A0
:100B1000137DDB07FCD570470040004102A5FFFFB5
:100B2000F0B58025104B114E5C68114FAC435C60F2
:100B3000002A00D1F0BD1400102A00D91024121B85
:100B40001E801D7DED07FCD5A400A44600240D5990
:100B5000055104346445FAD1001909191F801C7D20
:100B6000E407FCD5E4E7C0460040004144A5FFFF90
:100B700004A5FFFF802270B5002304000D00520081
:100B8000E958E058814203D104339342F8D170BD53
:100B90002000044B9847402229002000024B984730
:100BA000F5E7C046F90A0000210B0000024A53781D
:100BB0005BB2002BFBDB7047000C004010230249A6
:100BC000CA681A42FCD07047000800401E21F8B5E0
:100BD0000227254A254C5368254E8B433B435360DF
:100BE000A760B047234B244D6360B047AF84234FC9
:100BF000B847234B1B689B0E3F2B00D1203B214A5B
:100C00009B021343204AEA62AB620023AB84B847DD
:100C10001E4BAB84B8470222AB8C1343AB84B8475E
:100C20003F22638893433D3A134380226380638865
:100C3000D201134363800023A360B047144B636069
:100C4000B047C021134A144B14485360036A090685
:100C50001B021B0A0B4303620023936007331360DC
:100C600030220F4B1A60F8BD00400041000C0040DC
:100C7000AD0B00000600010000080040BD0B0000A5
:100C800024608000FF01000080BB0A1C24050000D6
:100C90000007030010E000E0E703000000ED00E0C3
:100CA0002800002010B5014B984710BD51130000DB
:100CB000F8B5584DAB68002B00D0FEE7564C2368C2
:100CC000013321D12022554BFF32198B0A431A835D
:100CD0005968534A0A435A60524ADA61524A1A80A2
:100CE0001A7DD207FCD5514A1A801A7DD207FCD54D
:100CF0004F4A50492260504A1160504A1A801A7D6A
:100D0000D207FCD54E4B9847072322681340022B8D
:100D100021D02021414BFF31188B014319835868A2
:100D20003F49014359603F49D9613F491980197DC5
:100D3000C907FCD53D491980197DC907FCD5072194
:100D40008A4305390A4322603C4A1A801A7DD20739
:100D5000FCD53B4B984700223A4B1A70DA79D209FE
:100D6000FCD1394B9847394A394B9A4203D99420E0
:100D7000384B40009847294CA3685B035B0F032B5B
:100D800003D09620334B400098478022A36852023C
:100D90009BB29B01934203D02E202E4BFF309847ED
:100DA000802246212C4B5A609A612C4A11701B6A92
:100DB0001B060ED52A4B2B4A1B689918E0221202FB
:100DC000914206D880229201116881F30888AA60B6
:100DD0001847254B9847BFF35F8F62B6234B984760
:100DE0004020234DA8470A230127224E3370224B6F
:100DF0009847224C002807D02378002B03D180206D
:100E0000C001A847377027702378002BEFD01C4B08
:100E10009847ECE700ED00E0004080000040004112
:100E2000800004000020400005A5FFFF44A5FFFF4F
:100E3000FAC7E0D85DFCFFFF0440800006A5FFFF75
:100E40002913000000100040ED130000E01800001E
:100E5000FF1F00007D120000004400414744004194
:100E60000420000000E0FFFFCD0B0000610800003F
:100E7000FD13000065000020F5040000D4040020EC
:100E80001111000010B5054C122200212000044B66
:100E90009847F0232370E63BE37110BDD80400208F
:100EA000CD140000F8B5130007000D001600002057
:100EB0000A00074C0121A0470023984205D03300C7
:100EC0002A001F213800A04701231800F8BDC046A2
:100ED000E102000010B504220D210248024B9847A0
:100EE00010BDC04630000020B104000010B50B4A10
:100EF0000B48117ED37D09021943537E1B0419430D
:100F0000937E1B060B431A0A037142711A0C1B0EC7
:100F1000C371044B8271984710BDC046D8040020AD
:100F200030000020D50E0000F8B50422164B0E004C
:100F30009847164F164C174D86420DD0B8470123DF
:100F400004222373144B9A700022DA701A715A71BA
:100F50009A711A735A73A847B84700232373637AA8
:100F6000217A1B020B43A17A09040B43E17A09069B
:100F70001943891B0B0A217263720B0C090EA372B1
:100F8000E172A847F8BDC046B1040000850E00001C
:100F900030000020ED0E0000D804002070B51D4C7C
:100FA000050020001C4B34301422002198472300F8
:100FB0001333002D24D02200D87D08233C32210099
:100FC0003F261331497C31401C2901D0B14207D161
:100FD0001C211170123951700C330539D170DBB2FC
:100FE000191C834200D9011CC9B2002D0DD0023B4F
:100FF0009BB21B02A3862000084B3430984770BD7B
:101000002200D87C38320423D9E72200013B343255
:101010001370F0E7D8040020CD140000290F000061
:10102000F0B52F4F05003B0000241333597C85B0E9
:1010300003AAD170997C9170D97C5170197D11707F
:10104000997D02AAD170DB7D937002AB02331B88BD
:101050009C4208D3234B98470022234B1A73234BFF
:10106000984705B0F0BD224B98470028F9D03E00C4
:101070004836002D20D0039B3100E0181D4B9847C7
:1010800080210422890030001B4B9847164A013406
:10109000517A137A09021943937A1B041943D37ABC
:1010A0001B060B4315495B18190A13725172190C70
:1010B0001B0E9172D372C8E7802101962B0030007D
:1010C000052289000E4EB047039B2A00E0180D4B05
:1010D000019948330C4EB0470C4B9847D6E7C046B1
:1010E000D8040020850E000030000020ED0E000026
:1010F000F5040000A5080000B104000000FEFFFF99
:10110000C9030000D80600200D0A0000C913000022
:10111000F0B5002287B0052149484A4B4A4E98470E
:1011200000285CD0464B494C1A7A5B7A00271B0298
:101130001A43434B9B7A1B041343414AD27A12064B
:101140001A436B4601921B792372130A6372130CC4
:10115000A372130EE3723A4BDD7B1E2D1AD01DD8FD
:10116000122D3ED012D8BD4251D0032D2DD0384B78
:101170009847012323730433B3700023F370337152
:101180007371B37133732033737343E01A2D38D006
:101190001B2DECD12E4B984727733BE0282D3CD0DC
:1011A0000BD8232D3CD0252DE1D1802329489B024B
:1011B0004360294B082103600FE02F2DEAD05A2D00
:1011C00023D02A2DD3D1380028E01D4BDB7C191CFD
:1011D000122B00D912213000C9B2204B984707B01A
:1011E000F0BD20001E491F4B183018229847144BA1
:1011F000DB7C191C242B00D924212000C9B210301B
:10120000EBE73800184B9847E9E70120FAE7104B65
:1012100098472573154B9847E1E70120144BF2E7F7
:101220000C25144B2A00144903A89847019BAB4294
:1012300003D925726772A772E7720C2103A8CCE765
:10124000EB040020A50E0000D80400203000002090
:10125000850E00005807002000003E7F290F000087
:101260005A170000850800009D0F0000ED0E0000D9
:101270002110000049140000AC180000FEE7F0B592
:1012800006001C2500200F270C00EC403C40002AE3
:1012900005D1002C03D1002D01D0002809D0431C1A
:1012A0009C46331820003030092C00DD07301870C0
:1012B0006046043D2B1DE7D1F0BD0000054A064BFA
:1012C0001A60BFF34F8F054A054BDA60BFF34F8FAB
:1012D000C046FDE7EF6926F0FC1F00200400FA0578
:1012E00000ED00E00B4A10B55368002B0ED10A49FF
:1012F00051600A490A6801320A60094908680028F1
:1013000006D0824204D30B60064B9847013B5360E2
:1013100010BDC04660070020DC050000D40A002094
:10132000D80A0020BD120000054A064B1A60BFF320
:101330004F8F054A054BDA60BFF34F8FC046FDE77C
:10134000EF6916F0FC1F00200400FA0500ED00E034
:101350000123194A10B513709368D1680133936063
:1013600000290CD015480818834203D18024144862
:10137000E40344618B4201D10023D36010BDDBB292
:10138000104A002B10D180210D4BC90359611378ED
:1013900019000A39C9B2F02902D95178494251706D
:1013A00051785B181370E9E712789A42E6D18022EF
:1013B000034BD2039A61E1E76007002018FCFFFFAE
:1013C0000044004164000020064A9368D1689942B5
:1013D00007D2FA21C9005B18D3608022024BD203E6
:1013E0009A61704760070020004400418022024B50
:1013F000D2039A605A617047004400417047000070
:1014000070B50D4E0D4D0024AD1BAD1005D0A300E1
:10141000F35801349847A542F9D100F04FFA084E2D
:10142000084D0024AD1BAD1005D0A300F3580134C6
:101430009847A542F9D170BDC8180000C81800002F
:10144000C8180000D0180000F0B505000F2A2FD9E9
:101450000B0003439B0734D116000C000300103E21
:10146000350901352D01451927681F6067685F60E0
:10147000A7689F60E7681034DF6010339D42F3D1A6
:101480000F239E431036851989191340032B1AD94F
:101490001E1F0023B4080134A400CF58EF500433BA
:1014A000A342FAD10324A643331D2240C918ED18E4
:1014B000002A05D00023CC5CEC5401339342FAD1CE
:1014C000F0BD0500F6E71A00F2E7C046F0B5830765
:1014D00043D0541E002A3FD0CEB20200032502E0C2
:1014E0001A00013C38D3531C16702B42F8D1032C40
:1014F0002AD9FF220A40150215432A0415430F2C4E
:1015000014D927001A00103F3E09013636019E19F2
:10151000156055609560D56010329642F8D10F2263
:1015200097431037DB191440032C0DD91A00271FDD
:10153000BE080136B6009E1920C2B242FCD1032279
:1015400097430437DB191440002C05D0C9B21C198D
:10155000197001339C42FBD1F0BD14000300C6E7B3
:1015600010B5830725D00378002B24D00300032176
:1015700002E01A78002A1AD001330B42F9D1196817
:101580000E4A0F4C8A188A43224206D10433196846
:101590000A4A8A188A432242F8D01A001B78002B84
:1015A00003D0013211780029FBD1101A10BD181A8E
:1015B000FCE70300E3E70020F8E7C046FFFEFEFE7D
:1015C00080808080034B10B5002B02D0024800F0D1
:1015D00005F810BD00000000ED15000010B5010079
:1015E00000230022002000F01FF810BD70B5094B49
:1015F000094CE41AA41009D0084AA518AD00ED184A
:101600002B68013C9847043D002CF9D100F060F9AB
:1016100070BDC046DC180000E0180000FFFFFF3F6F
:101620007047C0467047C046F0B54E464546DE4658
:101630005746E0B5364D83B00600286898460F003F
:101640009146FFF7EDFF334B1C68A4235B00E05885
:10165000002852D043681F2B13DC5A1C0192002E25
:1016600028D1019A02339B0042601F502868FFF77F
:10167000D9FF002003B03CBC90469946A246AB4639
:10168000F0BD254B002B3DD0C820400000E000BF3E
:10169000002837D0A42200235200A15843600160E3
:1016A000A050403283500432835001330193002311
:1016B000002ED6D09A00924682444A46882154464B
:1016C0006250C4225200914681444A46873999406B
:1016D00012688B460A4394464A466146116084224A
:1016E00041465200A150022EBBD102005C468D3211
:1016F000FF3211680C431460B3E720004D30FF3017
:10170000E050A7E72868FFF78DFF01204042B1E7CE
:1017100090040020B8180000000000001201000230
:10172000EF020140EB030224014201020301000029
:101730000CA0800040A0800044A0800048A0800051
:1017400000000000501700005A170000B3040020EA
:101750004D4B20466163746F720044454620434FF1
:101760004E2032392042616467650000EB3C9055A1
:101770004632205546322000020101000240007E20
:101780003EF83F00010001000000000000000000E2
:101790008000294200420044433239426164676557
:1017A000000046415431362020200000494E464F6B
:1017B0005F5546325458540047180000494E44457E
:1017C0005820202048544D00DC1700004355525249
:1017D000454E542055463200000000003C21646F05
:1017E00063747970652068746D6C3E0A3C68746D32
:1017F0006C3E3C626F64793E3C7363726970743E08
:101800000A6C6F636174696F6E2E7265706C6163D0
:1018100065282268747470733A2F2F7777772E6457
:101820006566636F6E2E6F72672F22293B0A3C2F0D
:101830007363726970743E3C2F626F64793E3C2F13
:1018400068746D6C3E0A0055463220426F6F746CAE
:101850006F616465722076332E31332E302D392D31
:1018600067326664303539332D6469727479204685
:10187000414F0D0A4D6F64656C3A20444546204344
:101880004F4E2032392042616467650D0A426F6114
:1018900072642D49443A2053414D44323147313628
:1018A000422D646332392D76300D0A0000000008A5
:1018B00000003E800200020068000020F8B5C0462B
:1018C000F8BC08BC9E467047C5150000DD0000004E
:1018D000F8B5C046F8BC08BC9E467047B50000008D
:1018E0000902200001010080FA0904000002080634
:1018F0005000070584024000000705050240000073
:10190000050F0500000000000100000001000000BC
:10191000534253550000000000000000000000008A
:101920000080020220000000000000000000000013
:1019300000000000000000000000000000000000A7
:10194000312E3030C8010000000000005403002098
:10195000BC03002024040020000000000000000060
:101960000000000000000000000000000000000077
:101970000000000000000000000000000000000067
:101980000000000000000000000000000000000057
:101990000000000000000000000000000000000047
:1019A0000000000000000000000000000000000037
:1019B0000000000000000000000000000000000027
:1019C0000000000000000000000000000000000017
:1019D0000000000000000000000000000000000007
:1019E00000000000000000000000000000000000F7
:1019F00001000000000000000E33CDAB34126DE694
:101A0000ECDE05000B0000000000000000000000FC
:101A100000000000000000000000000000000000C6
:101A200000000000000000000000000000000000B6
:101A300000000000000000000000000000000000A6
:101A40000000000000000000000000000000000096
:041D7000DC0A002069
:00000001FF
